:10000000A3C00000C8C00000C6C00000C4C00000FB
:10001000C2C00000C0C00000BEC0000003C7000096
:10002000BAC00000B8C00000B6C00000B4C00000F4
:10003000B2C00000B0C00000AEC00000ACC0000004
:100040000C94A70BA8C000000C9482090C94B6096C
:10005000A2C00000A0C000009EC000009CC0000024
:100060009AC0000098C0000007634236B79BD8A72B
:100070001A39685618AEBAAB558C1D3CB7CC5763CD
:10008000BD6DEDFD753EF6177231BF000000803F7B
:1000900008000000BE922449123EABAAAA2ABECD97
:1000A000CCCC4C3E00000080BEABAAAAAA3E000009
:1000B0000000BF000000803F000000000008417801
:1000C000D3BB4387D1133D190E3CC3BD4282AD2B38
:1000D0003E68EC8276BED98FE1A93E4C80EFFFBE30
:1000E00001C4FF7F3F000000000002000000002468
:1000F0000027002A0000000000250028002B000037
:100100000000002300260029000404040404040461
:1001100004020202020202030303030303010204B6
:100120000810204080010204081020010204081079
:100130002000000007000201000003040600000088
:10014000000000000000670B11241FBECFEFD8E0B5
:10015000DEBFCDBF11E0A0E0B1E0EEECF4E202C002
:1001600005900D92A43DB107D9F713E0A4EDB1E0DD
:1001700001C01D92AB32B107E1F711E0C8E4D1E054
:1001800004C02297FE010E945812C634D107C9F755
:1001900044D40C94651234CF21E030E00AC0A901A8
:1001A000489F9001499F300D589F300D1124615098
:1001B0007040161617069CF3C9010895EF92FF923E
:1001C0000F931F93CF93DF937C016A30710579F50C
:1001D000F7018701065F1F4FE7018A819B81288114
:1001E0003981820F931F62E070E00E94BB1161931E
:1001F0007193E017F10781F740E050E020E030E034
:10020000F701E20FF31F80819181480F591F2E5F84
:100210003F4F2A303105A1F7CA0165E070E00E9426
:10022000BB11CB01CDB7DEB7E6E00C943312EC0185
:1002300000E010E0F701E00FF11F8A819B81288127
:100240003981820F931F2C813D81820F931F63E0C0
:1002500070E00E94BB117183608326960E5F1F4F72
:100260000431110539F7B4CF009719F0019789F4DB
:1002700008C087E060E00E94E70C86E061E00C9433
:10028000E70C87E061E00E94E70C86E060E00C94F8
:10029000E70C08950F931F93182F062F60E00E941C
:1002A000E70C82E090E00E94360C812F61E00E9412
:1002B000E70C8AE090E00E94360C812F60E00E94FB
:1002C000E70C802F61E020E432E44FE050E00E9430
:1002D000480D22E030E040E050E00E94F011CA01F9
:1002E000B9010E94D70E2DEC3CEC48EE51E40E947F
:1002F0003C0E0E94A40ECB011F910F910895CF9246
:10030000DF92EF92FF920F931F937B018C0183E0AA
:10031000C82E83E0D82EC60160E071E0A8D4C801E1
:10032000B7010E943E10162F072FF82EE92EC601A6
:10033000212F302FEF2DFE2DA901BF0122E030E04B
:1003400017D5212F302F4F2D5E2DB901CA011F91D6
:100350000F91FF90EF90DF90CF900895A0E0B0E074
:10036000E4EBF1E00C9413125C016B010F2EF0E052
:10037000EF2EF0E0FF2EF0E00F2FF0E01F2FF02D1A
:10038000C0E0D0E0F501EC0FFD1F608171816C19B8
:100390007D09882777FD8095982F0E94D70E20E051
:1003A00030E040E050E40E94EE0F9B01AC01C80138
:1003B000B7010E94D40D7B018C0183E093E0B8016A
:1003C000A70122E030E0D2D483E093E06FE071E057
:1003D0004ED42296CC33D105A9F683E093E054D3D2
:1003E00083E093E063E171E042D4C801B70120E00B
:1003F00030E040EF51E40E943C0E7B018C0183E031
:1004000093E0A701B80122E030E0B2D4B701C801FF
:10041000CDB7DEB7EAE00C942F122F923F924F92A5
:100420005F926F927F928F929F92AF92BF92CF9284
:10043000DF92EF92FF920F931F935C016EE170E0E9
:10044000BDDE7C0193E0C92E93E0D92EC6016EE19A
:1004500071E0A0D4C60161E871E009D4C601B7011A
:100460004AE050E0F2D3C501B70178DF5B016C01CF
:1004700046DF3B014C010027F7FC0095102FC80117
:10048000B7010E94D70E7B018C012090BD013090F6
:10049000BE014090BF015090C001C601B501A4014A
:1004A00093010E943C0E5B016C01C801B701A201DF
:1004B00091010E94D30DA60195010E948B0F6093BC
:1004C0002202709323028093240290932502C80194
:1004D000B701A20191010E94D40DA60195010E94CD
:1004E0008B0F6093260270932702809328029093CB
:1004F00029021F910F91FF90EF90DF90CF90BF9056
:10050000AF909F908F907F906F905F904F903F90B3
:100510002F900895EF92FF920F931F93CF93DF9345
:100520007C018B01C6EDD1E0C701B801B3DEBC018F
:100530008993999383E093E04AE050E074D383E099
:1005400093E06FE071E093D382E0C231D80761F7A6
:10055000CE01CC976EE170E031DE182F092F83E0D9
:1005600093E06FE871E083D383E093E0612F702F15
:100570004AE050E06AD3812F902FCDB7DEB7E6E096
:100580000C943312A0E0B0E0E8ECF2E00C94151209
:10059000FE013B96C190D1907F0100E010E015C0B4
:1005A000F70180810E94190D892B41F4B601615039
:1005B000704082E090E0F0DD080F191F0894C10838
:1005C000D10882E090E0E80EF91E1C141D0444F3EB
:1005D000C8012096E8E00C943112A0E0B0E0E3EF0F
:1005E000F2E00C941512182F85E061E00E94E70CF0
:1005F00060E777E180E090E00E94150C85E060E024
:100600000E94E70C112309F448C032E0E32EF12CDC
:1006100009E010E028E0C22ED12C84E06CED75E0FA
:1006200020E030E040E050E058D46CE271E080E03F
:1006300090E00E94150C84E0E0D386E060E00E9428
:10064000E70C68E572E080E090E00E94150C86E01F
:1006500061E00E94E70C00D000D000D0EDB7FEB7FB
:100660003196CDB7DEB7FA82E98213830283D58251
:10067000C48288DF9093D5018093D4012DB73EB713
:100680002A5F3F4F0FB6F8943EBF0FBE2DBF0297B3
:1006900009F0C3CF81E08093C101CDB7DEB7E8E0B8
:1006A0000C943112EF92FF920F931F93CF93DF932D
:1006B00000D000D000D0EDB7FEB7319682E090E0D8
:1006C000CDB7DEB79A83898389E090E093838283F4
:1006D00088E090E09583848355DF9093D5018093E3
:1006E000D401EDB7FEB736960FB6F894FEBF0FBE35
:1006F000EDBF009709F4A3C0039709F05FC1809193
:10070000C101882309F45AC181E090E0ADDD0AE21D
:1007100012E0E8018CE090E06DE070E0FBDE899390
:10072000999368EB7BE080E090E00E94150CF2E08A
:10073000C636DF0779F7CE01CC976FDE83E093E012
:1007400067E971E094D240912202509123026091B6
:1007500024027091250283E093E022E030E008D388
:1007600083E093E069EA71E082D2409126025091E1
:100770002702609128027091290283E093E022E031
:1007800030E0F6D28091220290912302A0912402BF
:10079000B09125028093120290931302A093140249
:1007A000B09315028AE090E06BE070E0B3DEE80100
:1007B000899399938E0168EB7BE080E090E00E9442
:1007C000150CE2E0C636DE0769F7CE01CC9725DED0
:1007D00083E093E067E971E04AD2409122025091B0
:1007E0002302609124027091250283E093E022E0CD
:1007F00030E0BED283E093E069EA71E038D2409104
:10080000260250912702609128027091290283E00C
:1008100093E022E030E0ACD280912202909123025A
:10082000A0912402B09125028093160290931702A2
:10083000A0931802B09319021092C101BFC080E0CA
:1008400090E012DD68E873E180E090E0EED70AE224
:1008500012E0E8018CE090E06DE070E05BDE8993EF
:10086000999368EB7BE080E090E0DFD7F2E0C6365A
:10087000DF0781F7CE01CC97D0DD83E093E067E915
:1008800071E0F5D14091220250912302609124023F
:100890007091250283E093E022E030E069D283E0AA
:1008A00093E069EA71E0E3D140912602509127027A
:1008B000609128027091290283E093E022E030E009
:1008C00057D28091220290912302A0912402B091EC
:1008D000250280931A0290931B02A0931C02B093EE
:1008E0001D028AE090E06BE070E014DEE80189937D
:1008F00099938E0168EB7BE080E090E096D7E2E090
:10090000C636DE0771F7CE01CC9787DD83E093E032
:1009100067E971E0ACD140912202509123026091CD
:1009200024027091250283E093E022E030E020D29F
:1009300083E093E069EA71E09AD1409126025091F8
:100940002702609128027091290283E093E022E05F
:1009500030E00ED2E0902202F090230200912402B7
:1009600010912502E0921E02F0921F0200932002D5
:100970001093210260911A0270911B0280911C0257
:1009800090911D02209112023091130240911402A5
:10099000509115020E94870F181684F4C801B70100
:1009A00020911602309117024091180250911902BD
:1009B0000E94380E181614F081E00FDE68EE73E026
:1009C00080E090E032D7CDB7DEB7E6E00C9433128A
:1009D00083E093E040E855E260E070E041D58AE0D2
:1009E00061E089D78BE060E086D78CE061E083D757
:1009F0008DE060E080D787E061E07DD786E061E050
:100A00007AD784E061E077D785E061E074D789E048
:100A100062E071D788E062E06EC7CF93DF9330D792
:100A2000D7DFC8ECDAE03EDE2097E9F3B1D5FBCFA3
:100A3000A0E0B0E0EEE1F5E00C9415127C016B0152
:100A40008A01C0E0D0E00FC0D6016D916D01D701E1
:100A5000ED91FC910190F081E02DC7010995C80F3F
:100A6000D91F015010400115110571F7CE01CDB706
:100A7000DEB7E8E00C943112DC01ED91FC910190BD
:100A8000F081E02D09950895EF92FF920F931F9347
:100A90008C016DE0F1DF7C01C8016AE0EDDF9C01B3
:100AA0002E0D3F1DC9011F910F91FF90EF900895EA
:100AB000EF92FF920F931F938C017B01CB010E9459
:100AC0005C12AC01D801ED91FC910280F381E02D24
:100AD000C801B70109951F910F91FF90EF900895FC
:100AE0004F925F927F928F929F92AF92BF92CF92DE
:100AF000DF92EF92FF920F931F93DF93CF93CDB7C7
:100B0000DEB7A1970FB6F894DEBF0FBECDBF2C01A4
:100B1000742ECB01223008F42AE019A231E2C32E50
:100B2000D12CCC0EDD1E822E9924AA24BB24672D45
:100B3000752FA50194010E94CE1179018A01C80187
:100B4000B701A50194010E949C11472D461B0894F2
:100B5000C108D1084A3010F4405D01C0495CF6017B
:100B60004083E114F1040105110521F07E2C5F2D75
:100B7000C801DDCFC201B6019BDFA1960FB6F89484
:100B8000DEBF0FBECDBFCF91DF911F910F91FF90C0
:100B9000EF90DF90CF90BF90AF909F908F907F901D
:100BA0005F904F900895DC012115310541F4ED91DE
:100BB000FC910190F081E02D642F0995089590CF6C
:100BC000A0E0B0E0E6EEF5E00C941512EC016A014D
:100BD0007B012115310541F4E881F9810190F08113
:100BE000E02D642F099518C02A303105A1F477FF54
:100BF00011C06DE241DF8C0144275527BA014C1921
:100C00005D096E097F09CE012AE06ADF9C01200F91
:100C1000311F03C02AE064DF9C01C901CDB7DEB7F4
:100C2000E8E00C943112EF92FF920F931F937B0137
:100C30009A010027F7FC0095102FB801A701C0DF2B
:100C40001F910F91FF90EF900895EF92FF920F93F5
:100C50001F937C01E8DF8C01C70116DF9C01200F88
:100C6000311FC9011F910F91FF90EF90089520CF80
:100C70000895A0E0B0E0EFE3F6E00C9410124C0110
:100C80007A018B01722ECB01BA0120E030E040E006
:100C900050E0EED787FD03C0C0E0D0E008C0C4013B
:100CA0006DE2EADEEC0117FB109517F9109520E0D4
:100CB00030E040E05FE3AA240AC0CA01B90120E0A5
:100CC00030E040E251E4D8D79B01AC01A394A714D3
:100CD000A0F3C801B70168D75B016C010E94A90E9F
:100CE0007B018C01C401B801A7012AE030E05BDF81
:100CF000C80FD91F772031F0C4016BEB71E0B7DF6B
:100D0000C80FD91FC801B7010E94D50E9B01AC01C5
:100D1000C601B50148D722C020E030E040E251E4EE
:100D20000E948B0F5B016C010E94A40E9B01AC0121
:100D30007B01C401B9014AE050E075DFC80FD91F3B
:100D40000027F7FC0095102FC801B7010E94D70EAD
:100D50009B01AC01C601B50126D77A947720E1F654
:100D6000CE01CDB7DEB7EDE00C942C1282CF089502
:100D7000EF92FF920F931F937C01F8DF8C01C70164
:100D800083DE9C01200F311FC9011F910F91FF903D
:100D9000EF900895EF92FF920F931F937C0167DF0E
:100DA0008C01C70171DE9C01200F311FC9011F9109
:100DB0000F91FF90EF900895813041F0813018F04D
:100DC0008230D1F409C010926E00089580916F00B6
:100DD0008D7F80936F000895809170008D7F809348
:100DE000700081E08093B0008091B100887F8460C2
:100DF0008093B1001092B30008951F93182F809133
:100E0000C201811711F09FEF06C0EAEEF0E0949165
:100E10008FEF8093C201892FCFDF812F60E0D7D57C
:100E20001F9108951F920F920FB60F9211242F93C6
:100E30003F934F935F936F937F938F939F93AF9362
:100E4000BF93EF93FF938091740290917502A091EC
:100E50007602B09177020097A105B10551F1E091BA
:100E60007802F0917902808190917A0289278083BB
:100E70008091740290917502A0917602B0917702F0
:100E8000181619061A061B06BCF48091740290917C
:100E90007502A0917602B09177020197A109B1097C
:100EA0008093740290937502A0937602B0937702B8
:100EB00003C08091C201A1DFFF91EF91BF91AF917B
:100EC0009F918F917F916F915F914F913F912F9162
:100ED0000F900FBE0F901F9018952F923F925F9228
:100EE0006F927F928F929F92AF92BF92CF92DF923A
:100EF000EF92FF920F931F93DF93CF9300D000D018
:100F0000CDB7DEB7A82F1B0129833A834B835C83BF
:100F10008091C2018A1721F4EAEEF0E0549082C079
:100F20008F3F09F0D8C1A093C201EAEEF0E05490DF
:100F30002FEF521609F4CFC181E0581639F192E033
:100F4000591609F449C0552009F06CC014BC15BCF1
:100F500084B5826084BD85B5816085BD2A2F30E06F
:100F6000F901E75FFE4FE491F0E0EE0FFF1FEB5059
:100F7000FF4F8591949190936B0280936A02235E58
:100F80003E4FF901849180936C024EC01092800014
:100F9000109281008091810088608093810080910F
:100FA00081008160809381002A2F30E0F901E75FA2
:100FB000FE4FE491F0E0EE0FFF1FEB50FF4F8591E5
:100FC00094919093720280937102235E3E4FF901D7
:100FD00084918093730228C01092B0001092B100E7
:100FE0008091B00082608093B0008091B1008160F8
:100FF0008093B1002A2F30E0F901E75FFE4FE491C2
:10100000F0E0EE0FFF1FEB50FF4F8591949190930E
:10101000790280937802235E3E4FF9018491809398
:101020007A0202C057FC57C18A2F61E064D4552070
:1010300021F0F2E05F1609F0BDC031018824992447
:1010400060E072E18AE790E0A40193010E94CE1172
:1010500059016A01860175010894E108F108010946
:1010600011092FEFE216F1040105110509F008F44A
:1010700098C060E472E48FE090E0A40193010E94C4
:10108000CE1179018A010894E108F10801091109DA
:1010900082E05816C1F49FEFE916F104010511052D
:1010A00009F008F483C060E970ED83E090E0A401EA
:1010B00093010E94CE1179018A010894E108F10898
:1010C0000109110983E0AFEFEA16F10401051105EA
:1010D00009F008F467C068E478EE81E090E0A401CC
:1010E00093010E94CE1179018A010894E108F10868
:1010F00001091109552011F483E01DC0B2E05B160F
:1011000011F084E018C0EFEFEE16F10401051105AF
:1011100009F008F4DEC064E274EF80E090E0A4011E
:1011200093010E94CE1179018A010894E108F10827
:101130000109110985E0FFEFEF16F1040105110522
:1011400089F180F162E17AE780E090E0A401930107
:101150000E94CE1179018A010894E108F108010981
:101160001109552011F086E001C084E02FEFE2164E
:10117000F10401051105B1F0A8F0860175019AE0AE
:1011800016950795F794E7949A95D1F70894E10896
:10119000F10801091109552011F087E008C085E028
:1011A00003C081E0552019F485BD3AC082E08093E8
:1011B000B10036C05101CC24DD2460E072E18AE741
:1011C00090E0A60195010E94CE1179018A01089450
:1011D000E108F1080109110980E0E81680E0F8064D
:1011E00081E0080780E0180710F491E010C068E47F
:1011F00078EE81E090E0A60195010E94CE11790180
:101200008A010894E108F1080109110993E0A1E0BD
:101210005A1631F480918100887F982B9093810039
:1012200089819A81AB81BC810097A105B10529F420
:101230008FEF9FEFAFEFBFEF13C0220C331CB10154
:1012400080E090E029813A814B815C810E949C1171
:1012500028EE33E040E050E00E94CE11C901DA01EF
:10126000E1E05E16A1F0F2E05F1619F1552099F564
:10127000E7BC8093660290936702A0936802B093E4
:10128000690280916E00826080936E0024C0F092AB
:101290008900E092880080936D0290936E02A09383
:1012A0006F02B093700280916F00826080936F0034
:1012B00012C0E092B3008093740290937502A093E1
:1012C0007602B09377028091700082608093700004
:1012D00002C084E06CCF0F900F900F900F90CF91D1
:1012E000DF911F910F91FF90EF90DF90CF90BF9013
:1012F000AF909F908F907F906F905F903F902F90D6
:10130000089508951F920F920FB60F9211242F93F4
:101310003F934F938F939F93EF93FF934091C6001A
:101320002091BB023091BC022F5F3F4F2F73307072
:101330008091BD029091BE022817390759F0E091C3
:10134000BB02F091BC02E558FD4F40833093BC02D4
:101350002093BB02FF91EF919F918F914F913F910D
:101360002F910F900FBE0F901F9018951F920F9204
:101370000FB60F9211242F933F938F939F93EF9368
:10138000FF932091FF02309100038091010390911F
:1013900002032817390731F48091C1008F7D8093B3
:1013A000C10014C0E0910103F0910203E154FD4F2C
:1013B0002081809101039091020301968F739070B8
:1013C00090930203809301032093C600FF91EF9155
:1013D0009F918F913F912F910F900FBE0F901F9073
:1013E00018958F92AF92BF92CF92DF92EF92FF92B9
:1013F0000F931F93DF93CF93CDB7DEB7FC0113821A
:10140000128288EE93E0A0E0B0E084839583A68307
:10141000B78387EC91E091838083758764875787D2
:101420004687318B208B138B028BF58AE48AD78A0F
:10143000C68AB18EA08E828E8E85838F8F85848F93
:101440008889858F8989868FCF91DF911F910F9130
:10145000FF90EF90DF90CF90BF90AF908F90089566
:10146000AF92BF92DF92EF92FF920F931F93CF93B1
:10147000DF93EC017A018B01DD24403081EE5807C7
:1014800080E0680780E0780711F0DD24D39491E0D4
:10149000A92EB12CEC89FD89DD2069F0C5010E8CE7
:1014A00002C0880F991F0A94E2F7808360E079E018
:1014B0008DE390E005C0108260E874E88EE190E072
:1014C000A80197016BD721503040404050405695BD
:1014D00047953795279580E12030380720F0DD20AB
:1014E00011F0DD24D7CFE889F9893083EA89FB89B7
:1014F0002083EE89FF89408121E030E0C9010A8C18
:1015000002C0880F991F0A94E2F7482B4083EE89A6
:10151000FF894081C9010B8C02C0880F991F0A9472
:10152000E2F7482B4083EE89FF894081C9010C8C8A
:1015300002C0880F991F0A94E2F7482B4083EE8976
:10154000FF8980810D8C02C0220F331F0A94E2F7BD
:10155000209528232083DF91CF911F910F91FF9039
:10156000EF90DF90BF90AF900895CF93DF93EC01A1
:10157000EC85FD85E05CFF4F219131918081918167
:10158000281B390B2F733070C901DF91CF9108955B
:1015900083E093E0EADF892B09F0B3CE0895CF937F
:1015A000DF93EC01EC85FD85E05CFF4F208131810C
:1015B000E054F040DF01AE5BBF4F8D919C911197DD
:1015C0002817390719F42FEF3FEF07C08D919C9131
:1015D000E80FF91F8081282F30E0C901DF91CF91FA
:1015E0000895CF93DF93EC01EC85FD85E05CFF4F20
:1015F00020813181E054F040DF01AE5BBF4F8D911F
:101600009C9111972817390719F42FEF3FEF10C05D
:101610008D919C911197E80FF91F20818D919C91DC
:10162000119701968F73907011969C938E9330E072
:10163000C901DF91CF910895FC0186859785DC0172
:10164000A05CBF4FFC01EE5BFF4F2D913C911197C9
:101650008081918128173907C1F70895CF93DF93CF
:10166000EC01EE85FF85E05CFF4F20813181E05485
:10167000F0402F5F3F4F2F733070DF01AE5BBF4FE5
:101680008D919C91119728173907D1F3E05CFF4F9A
:1016900080819181E054F040E80FF91F6083EE856E
:1016A000FF85E05CFF4F31832083EE89FF89208135
:1016B00081E090E00D8C02C0880F991F0A94E2F738
:1016C000282B208381E090E0DF91CF9108958F92C5
:1016D000AF92BF92CF92DF92EF92FF920F931F9340
:1016E000CF93DF9300D000D0EDB7FEB7319683E003
:1016F000CDB7DEB7898387E0818385E0828381E08F
:10170000838383E093E06BE772E04FEB52E025ECDC
:1017100030E004EC10E0B0ECEB2EF12CA1ECCA2E82
:10172000D12CF6ECAF2EB12CE4E08E2E5ADE0F90C9
:101730000F900F900F90DF91CF911F910F91FF901D
:10174000EF90DF90CF90BF90AF908F9008951F9251
:101750000F920FB60F9211242F933F938F939F9365
:10176000AF93BF938091260390912703A091280304
:10177000B091290330912A030196A11DB11D232F99
:101780002D5F2D3720F02D570196A11DB11D2093FF
:101790002A038093260390932703A0932803B093F2
:1017A00029038091220390912303A0912403B091F7
:1017B00025030196A11DB11D80932203909323035D
:1017C000A0932403B0932503BF91AF919F918F9174
:1017D0003F912F910F900FBE0F901F9018959FB7BC
:1017E000F8942091220330912303409124035091D7
:1017F000250386B5A89B06C08F3F21F02F5F3F4F82
:101800004F4F5F4F9FBF542F432F322F2227280F58
:10181000311D411D511D82E0220F331F441F551FF2
:101820008A95D1F7B901CA010895EF92FF920F93FB
:101830001F93CF93DF937B018C01D1DFEB010DC0B0
:10184000CEDF6C1B7D0B685E7340D0F30894E1081B
:10185000F10801091109C851DC4FE114F104010537
:10186000110571F7CDB7DEB7E6E0FDC5019739F098
:10187000880F991F880F991F02970197F1F7089514
:10188000789484B5826084BD84B5816084BD85B55B
:10189000826085BD85B5816085BDEEE6F0E0808122
:1018A00081608083E1E8F0E0108280818260808343
:1018B000808181608083E0E8F0E0808181608083C6
:1018C000E1EBF0E0808184608083E0EBF0E08081F8
:1018D00081608083EAE7F0E080818460808380819A
:1018E0008260808380818160808380818068808342
:1018F0001092C1000895CF93DF93482F50E0CA01A2
:10190000835E9E4FFC013491475F5E4FFA018491E4
:10191000882369F190E0880F991FFC01E551FF4F82
:10192000A591B491FC01EB50FF4FC591D491662372
:1019300051F42FB7F8948C91932F909589238C9321
:10194000888189230BC0623061F42FB7F8948C91A1
:10195000932F909589238C938881832B88832FBF25
:1019600006C09FB7F8948C91832B8C939FBFDF9117
:10197000CF910895833071F0843028F48130A1F044
:10198000823021F514C08630B1F08730D1F0843038
:10199000E9F404C0809180008F7703C080918000BB
:1019A0008F7D80938000089584B58F7702C084B5C1
:1019B0008F7D84BD08958091B0008F778093B000B3
:1019C00008958091B0008F7D8093B0000895FF92BC
:1019D0000F931F93F62E482F50E0CA018F5C9E4F45
:1019E000FC012491CA01835E9E4FFC011491475F64
:1019F0005E4FFA0104910023C1F0222311F0822FDF
:101A0000B9DFE02FF0E0EE0FFF1FEB50FF4FA59185
:101A1000B4919FB7F894FF2021F48C911095812305
:101A200002C08C91812B8C939FBF1F910F91FF90CF
:101A300008950F931F93482F50E0CA018F5C9E4F6B
:101A4000FC012491CA01835E9E4FFC010491475F13
:101A50005E4FFA011491112319F420E030E014C014
:101A6000222311F0822F86DF812F90E0880F991FAB
:101A700081509F4FFC01A591B4918C9120E030E002
:101A8000802311F021E030E0C9011F910F910895EA
:101A9000A0E0B0E0EDE4FDE0C4C4A82FB0E0CD01CB
:101AA000835E9E4FFC018490A75FBE4FFD01849131
:101AB000662311F4992401C0982C6FEFA62E6FEFC6
:101AC000B62E6FEFC62E6FE0D62EA222B322C4220E
:101AD000D522682F70E0660F771F61507F4FEE248C
:101AE000FF248701FB01A591B4910BC0EA14FB040C
:101AF0000C051D0509F44DC00894E11CF11C011DE5
:101B0000111D8C918821891589F30CC0EA14FB04FE
:101B10000C051D0509F43DC00894E11CF11C011DD4
:101B2000111D03C0FB01A591B4918C9188218915E9
:101B300069F720E030E040E050E0FB01C591D4912E
:101B40000FC0DA01C9018E0D9F1DA01FB11F8A159C
:101B50009B05AC05BD05E9F02F5F3F4F4F4F5F4F31
:101B600088818821891569F3CA01B90125E130E02E
:101B700040E050E0E1D39B01AC01205F3F4F4F4F6D
:101B80005F4F84E056954795379527958A95D1F70D
:101B900004C020E030E040E050E0B901CA01CDB718
:101BA000DEB7ECE05AC45058BB27AA270ED075C147
:101BB00066D130F06BD120F031F49F3F11F41EF468
:101BC0005BC10EF4E095E7FB51C1E92F77D180F3BB
:101BD000BA17620773078407950718F071F49EF52A
:101BE0008FC10EF4E0950B2EBA2FA02D0B01B90179
:101BF00090010C01CA01A0011124FF27591B99F083
:101C0000593F50F4503E68F11A16F040A22F232F8E
:101C1000342F4427585FF3CF469537952795A795DE
:101C2000F0405395C9F77EF41F16BA0B620B730B85
:101C3000840BBAF09150A1F0FF0FBB1F661F771FF6
:101C4000881FC2F70EC0BA0F621F731F841F48F4AB
:101C5000879577956795B795F7959E3F08F0B3CF31
:101C60009395880F08F09927EE0F9795879508951B
:101C7000D9D008F481E008950CD00FC107D140F00D
:101C8000FED030F021F45F3F19F0F0C0511139C19E
:101C9000F3C014D198F39923C9F35523B1F3951BDD
:101CA000550BBB27AA2762177307840738F09F5F7D
:101CB0005F4F220F331F441FAA1FA9F333D00E2EEC
:101CC0003AF0E0E830D091505040E695001CCAF759
:101CD00029D0FE2F27D0660F771F881FBB1F26171E
:101CE00037074807AB07B0E809F0BB0B802DBF01F1
:101CF000FF2793585F4F2AF09E3F510568F0B6C00A
:101D000000C15F3FECF3983EDCF3869577956795CD
:101D1000B795F7959F5FC9F7880F911D96958795A1
:101D200097F90895E1E0660F771F881FBB1F6217C0
:101D300073078407BA0720F0621B730B840BBA0B7E
:101D4000EE1F88F7E095089504D06894B111D9C0CA
:101D50000895BCD088F09F5790F0B92F9927B751BC
:101D6000A0F0D1F0660F771F881F991F1AF0BA955F
:101D7000C9F712C0B13081F0C3D0B1E00895C0C03E
:101D8000672F782F8827B85F39F0B93FCCF3869555
:101D900077956795B395D9F73EF4909580957095B2
:101DA00061957F4F8F4F9F4F0895E89409C097FB2F
:101DB0003EF490958095709561957F4F8F4F9F4F22
:101DC0009923A9F0F92F96E9BB279395F695879566
:101DD00077956795B795F111F8CFFAF4BB0F11F429
:101DE00060FF1BC06F5F7F4F8F4F9F4F16C08823D0
:101DF00011F096E911C0772321F09EE8872F762F06
:101E000005C0662371F096E8862F70E060E02AF046
:101E10009A95660F771F881FDAF7880F9695879532
:101E200097F90895990F0008550FAA0BE0E8FEEF07
:101E300016161706E807F907C0F012161306E4078E
:101E4000F50798F0621B730B840B950B39F40A2687
:101E500061F0232B242B252B21F408950A2609F465
:101E6000A140A6958FEF811D811D089597F99F6769
:101E700080E870E060E008959FEF80EC0895002412
:101E80000A941616170618060906089500240A94DF
:101E900012161306140605060895092E0394000C65
:101EA00011F4882352F0BB0F40F4BF2B11F460FFF4
:101EB00004C06F5F7F4F8F4F9F4F089557FD90581D
:101EC000440F551F59F05F3F71F04795880F97FBFE
:101ED000991F61F09F3F79F08795089512161306B8
:101EE0001406551FF2CF4695F1DF08C016161706E7
:101EF0001806991FF1CF869571056105089408951C
:101F0000E894BB2766277727CB0197F908958ADFE6
:101F100008F48FEF08950BD0C0CFB1DF28F0B6DF03
:101F200018F0952309F0A2CFA7CF1124EACFC6DF7E
:101F3000A0F3959FD1F3950F50E0551F629FF001DC
:101F4000729FBB27F00DB11D639FAA27F00DB11D35
:101F5000AA1F649F6627B00DA11D661F829F2227BE
:101F6000B00DA11D621F739FB00DA11D621F839F45
:101F7000A00D611D221F749F3327A00D611D231F1B
:101F8000849F600D211D822F762F6A2F11249F5769
:101F900050408AF0E1F088234AF0EE0FFF1FBB1F8C
:101FA000661F771F881F91505040A9F79E3F51052B
:101FB00070F05CCFA6CF5F3FECF3983EDCF38695E4
:101FC00077956795B795F795E7959F5FC1F7FE2BD6
:101FD000880F911D9695879597F90895FA01EE0F50
:101FE000FF1F30962105310599F16115710561F4E6
:101FF0008038BFE39B0749F168949038810561F010
:102000008038BFEF9B0741F0992342F5FF3FE10580
:102010003105210511F1E8940894E795D901AA2327
:1020200029F4AB2FBE2FF85FD0F310C0FF5F70F420
:10203000A695E0F7F73950F019F0FF3A38F49F779A
:102040009F930CD00F9007FC905808953EF014CF4A
:1020500060E070E080E89FE308954FE79F775F932B
:102060004F933F932F93F5D02F913F914F915F91D5
:1020700052DF47C011F40EF4FFCE6FC027DFD0F35C
:102080009923D9F3CEF39F57550B87FF74D00024C3
:10209000A0E640EA900180585695979528F4805C18
:1020A000660F771F881F20F026173707480730F480
:1020B000621B730B840B202931294A2BA695179498
:1020C0000794202531254A2758F7660F771F881F68
:1020D00020F026173707480730F4620B730B840B88
:1020E000200D311D411DA09581F7B901842F915814
:1020F000880F96958795089519F40EF0B7CE00CF06
:10210000BBCEE4DEC8F39638C0F707F80F92E89428
:102110002BE33AEA48EB5FE70CDF0F920F920F9246
:102120004DB75EB70F92D5D0E8E6F0E02BD04F91D7
:102130005F91EF91FF91E595EE1FFF1F49F0FE576C
:10214000E0684427EE0F441FFA95E1F74195550BDF
:1021500047D00F9007FE3BC008959F3F31F091504C
:1021600020F4879577956795B795880F911D96957B
:10217000879597F9089591505040660F771F881FF3
:10218000D2F70895DF93CF931F930F93FF92EF92AF
:10219000DF927B018C01689405C0DA2EEF01C7DE67
:1021A000FE01E894A5912591359145915591AEF3A5
:1021B000EF010BDDFE019701A801DA9479F7DF90BA
:1021C000EF90FF900F911F91CF91DF9108959B01A8
:1021D000AC0160E070E080E89FE34ECD47CEBDCF1C
:1021E00075DEE8F39923D9F3940F511DBBF3915099
:1021F000504094F059F0882332F0660F771F881F03
:1022000091505040C1F79E3F510544F7880F911DF2
:102210009695879597F908955F3FACF0983E9CF0AE
:10222000BB27869577956795B79508F4B160939528
:10223000C1F7BB0F58F711F460FFE8CF6F5F7F4F16
:102240008F4F9F4FE3CF5DCE0EF087CF15CE6894B2
:102250000DCE3CDEC8F39923D1F3C6F3DF93CF93C1
:102260001F930F93FF92C92FDD2788232AF0219710
:10227000660F771F881FDAF720E030E040E85FEB59
:102280009FE3883920F0803E30F021968F778CDCF8
:10229000E0E9F0E003C088DCEDEBF0E073DF8B01F8
:1022A000BE01EC01FB2E6F5771097595771F880BE6
:1022B000990B7DDD28E132E741E35FE338DEAF2DA6
:1022C0009801AE01FF900F911F91CF91DF917DDCBE
:1022D000E4CDFA01DC01AA0FBB1F9B01AC01BF5783
:1022E00028F422273327442750781FC0B75188F499
:1022F000AB2F0024469537952795011CA395D2F363
:10230000002069F0220F331F441FB395DAF30DD07C
:102310004ACC61307105A0E88A07B94630F49B01C8
:10232000AC016627772788279078309621F02083A4
:102330003183428353830895629FD001739FF001DC
:10234000829FE00DF11D649FE00DF11D929FF00D45
:10235000839FF00D749FF00D659FF00D9927729F7C
:10236000B00DE11DF91F639FB00DE11DF91FBD0107
:10237000CF011124089597FB092E07260AD077FD77
:1023800004D080D006D000201AF4709561957F4F5C
:102390000895F6F7909581959F4F0895A1E21A2E22
:1023A000AA1BBB1BFD010DC0AA1FBB1FEE1FFF1FF9
:1023B000A217B307E407F50720F0A21BB30BE40B49
:1023C000F50B661F771F881F991F1A9469F7609590
:1023D0007095809590959B01AC01BD01CF0108954A
:1023E00097FB092E05260ED057FD04D0D7DF0AD063
:1023F000001C38F450954095309521953F4F4F4F34
:102400005F4F0895F6F790958095709561957F4F91
:102410008F4F9F4F08952F923F924F925F926F92EE
:102420007F928F929F92AF92BF92CF92DF92EF9264
:10243000FF920F931F93CF93DF93CDB7DEB7CA1BE5
:10244000DB0B0FB6F894DEBF0FBECDBF09942A8810
:10245000398848885F846E847D848C849B84AA84B8
:10246000B984C884DF80EE80FD800C811B81AA8145
:10247000B981CE0FD11D0FB6F894DEBF0FBECDBF10
:10248000ED010895AA1BBB1B51E107C0AA1FBB1F8A
:10249000A617B70710F0A61BB70B881F991F5A95F0
:1024A000A9F780959095BC01CD010895EE0FFF1F0F
:1024B0000590F491E02D0994FC0101900020E9F7CA
:0E24C000809590958E0F9F1F0895F894FFCF82
:1024CE0044657376696F2050616472616F200020DD
:1024DE007C200056617269616E63696120003D3D2A
:1024EE003D3D3D3D3D3D3D3D3D3D3D3D3D3D3D3D0E
:1024FE003D3D3D3D3D3D3D3D3D3D3D3D3D3D3D3DFE
:10250E003D3D3D3D3D3D3D3D3D3D3D3D3D3D3D3DED
:10251E003D3D3D3D3D3D3D3D3D3D3D3D3D3D3D3DDD
:10252E003D3D3D3D3D3D3D3D3D3D3D3D3D3D3D3DCD
:10253E003D3D3D3D3D3D3D3D3D3D3D3D3D3D3D3DBD
:10254E00004D4544494120544F54414C3A20004DD2
:10255E00656469613A20004C696D69746520696E25
:10256E00666572696F723A20004C696D69746520F8
:10257E007375706572696F723A20002E0048E1FA29
:10258E003F01FF000000002E0B1805B50AF10ACF1F
:04259E000A1C0B0008
:00000001FF
